{
  "_format": "hh-sol-artifact-1",
  "contractName": "Paymaster",
  "sourceName": "contracts/Paymaster.sol",
  "abi": [
    {
      "inputs": [
        {
          "internalType": "contract IEntryPoint",
          "name": "_entryPoint",
          "type": "address"
        }
      ],
      "stateMutability": "nonpayable",
      "type": "constructor"
    },
    {
      "inputs": [
        {
          "internalType": "address",
          "name": "owner",
          "type": "address"
        }
      ],
      "name": "OwnableInvalidOwner",
      "type": "error"
    },
    {
      "inputs": [
        {
          "internalType": "address",
          "name": "account",
          "type": "address"
        }
      ],
      "name": "OwnableUnauthorizedAccount",
      "type": "error"
    },
    {
      "anonymous": false,
      "inputs": [
        {
          "indexed": true,
          "internalType": "address",
          "name": "sender",
          "type": "address"
        },
        {
          "indexed": true,
          "internalType": "bytes32",
          "name": "userOpHash",
          "type": "bytes32"
        }
      ],
      "name": "OperationSponsored",
      "type": "event"
    },
    {
      "anonymous": false,
      "inputs": [
        {
          "indexed": true,
          "internalType": "address",
          "name": "previousOwner",
          "type": "address"
        },
        {
          "indexed": true,
          "internalType": "address",
          "name": "newOwner",
          "type": "address"
        }
      ],
      "name": "OwnershipTransferStarted",
      "type": "event"
    },
    {
      "anonymous": false,
      "inputs": [
        {
          "indexed": true,
          "internalType": "address",
          "name": "previousOwner",
          "type": "address"
        },
        {
          "indexed": true,
          "internalType": "address",
          "name": "newOwner",
          "type": "address"
        }
      ],
      "name": "OwnershipTransferred",
      "type": "event"
    },
    {
      "inputs": [],
      "name": "acceptOwnership",
      "outputs": [],
      "stateMutability": "nonpayable",
      "type": "function"
    },
    {
      "inputs": [
        {
          "internalType": "uint32",
          "name": "unstakeDelaySec",
          "type": "uint32"
        }
      ],
      "name": "addStake",
      "outputs": [],
      "stateMutability": "payable",
      "type": "function"
    },
    {
      "inputs": [],
      "name": "deposit",
      "outputs": [],
      "stateMutability": "payable",
      "type": "function"
    },
    {
      "inputs": [],
      "name": "entryPoint",
      "outputs": [
        {
          "internalType": "contract IEntryPoint",
          "name": "",
          "type": "address"
        }
      ],
      "stateMutability": "view",
      "type": "function"
    },
    {
      "inputs": [],
      "name": "getDeposit",
      "outputs": [
        {
          "internalType": "uint256",
          "name": "",
          "type": "uint256"
        }
      ],
      "stateMutability": "view",
      "type": "function"
    },
    {
      "inputs": [],
      "name": "owner",
      "outputs": [
        {
          "internalType": "address",
          "name": "",
          "type": "address"
        }
      ],
      "stateMutability": "view",
      "type": "function"
    },
    {
      "inputs": [],
      "name": "pendingOwner",
      "outputs": [
        {
          "internalType": "address",
          "name": "",
          "type": "address"
        }
      ],
      "stateMutability": "view",
      "type": "function"
    },
    {
      "inputs": [
        {
          "internalType": "enum IPaymaster.PostOpMode",
          "name": "mode",
          "type": "uint8"
        },
        {
          "internalType": "bytes",
          "name": "context",
          "type": "bytes"
        },
        {
          "internalType": "uint256",
          "name": "actualGasCost",
          "type": "uint256"
        },
        {
          "internalType": "uint256",
          "name": "actualUserOpFeePerGas",
          "type": "uint256"
        }
      ],
      "name": "postOp",
      "outputs": [],
      "stateMutability": "nonpayable",
      "type": "function"
    },
    {
      "inputs": [],
      "name": "renounceOwnership",
      "outputs": [],
      "stateMutability": "nonpayable",
      "type": "function"
    },
    {
      "inputs": [
        {
          "internalType": "address",
          "name": "newOwner",
          "type": "address"
        }
      ],
      "name": "transferOwnership",
      "outputs": [],
      "stateMutability": "nonpayable",
      "type": "function"
    },
    {
      "inputs": [],
      "name": "unlockStake",
      "outputs": [],
      "stateMutability": "nonpayable",
      "type": "function"
    },
    {
      "inputs": [
        {
          "components": [
            {
              "internalType": "address",
              "name": "sender",
              "type": "address"
            },
            {
              "internalType": "uint256",
              "name": "nonce",
              "type": "uint256"
            },
            {
              "internalType": "bytes",
              "name": "initCode",
              "type": "bytes"
            },
            {
              "internalType": "bytes",
              "name": "callData",
              "type": "bytes"
            },
            {
              "internalType": "bytes32",
              "name": "accountGasLimits",
              "type": "bytes32"
            },
            {
              "internalType": "uint256",
              "name": "preVerificationGas",
              "type": "uint256"
            },
            {
              "internalType": "bytes32",
              "name": "gasFees",
              "type": "bytes32"
            },
            {
              "internalType": "bytes",
              "name": "paymasterAndData",
              "type": "bytes"
            },
            {
              "internalType": "bytes",
              "name": "signature",
              "type": "bytes"
            }
          ],
          "internalType": "struct PackedUserOperation",
          "name": "userOp",
          "type": "tuple"
        },
        {
          "internalType": "bytes32",
          "name": "userOpHash",
          "type": "bytes32"
        },
        {
          "internalType": "uint256",
          "name": "maxCost",
          "type": "uint256"
        }
      ],
      "name": "validatePaymasterUserOp",
      "outputs": [
        {
          "internalType": "bytes",
          "name": "context",
          "type": "bytes"
        },
        {
          "internalType": "uint256",
          "name": "validationData",
          "type": "uint256"
        }
      ],
      "stateMutability": "nonpayable",
      "type": "function"
    },
    {
      "inputs": [
        {
          "internalType": "address payable",
          "name": "withdrawAddress",
          "type": "address"
        }
      ],
      "name": "withdrawStake",
      "outputs": [],
      "stateMutability": "nonpayable",
      "type": "function"
    },
    {
      "inputs": [
        {
          "internalType": "address payable",
          "name": "withdrawAddress",
          "type": "address"
        },
        {
          "internalType": "uint256",
          "name": "amount",
          "type": "uint256"
        }
      ],
      "name": "withdrawTo",
      "outputs": [],
      "stateMutability": "nonpayable",
      "type": "function"
    }
  ],
  "bytecode": "0x60a060405234801561000f575f5ffd5b506040516114b13803806114b183398181016040528101906100319190610266565b80335f73ffffffffffffffffffffffffffffffffffffffff168173ffffffffffffffffffffffffffffffffffffffff16036100a3575f6040517f1e4fbdf700000000000000000000000000000000000000000000000000000000815260040161009a91906102a0565b60405180910390fd5b6100b2816100fd60201b60201c565b506100c28161013360201b60201c565b8073ffffffffffffffffffffffffffffffffffffffff1660808173ffffffffffffffffffffffffffffffffffffffff168152505050506102b9565b60015f6101000a81549073ffffffffffffffffffffffffffffffffffffffff02191690556101308161013660201b60201c565b50565b50565b5f5f5f9054906101000a900473ffffffffffffffffffffffffffffffffffffffff169050815f5f6101000a81548173ffffffffffffffffffffffffffffffffffffffff021916908373ffffffffffffffffffffffffffffffffffffffff1602179055508173ffffffffffffffffffffffffffffffffffffffff168173ffffffffffffffffffffffffffffffffffffffff167f8be0079c531659141344cd1fd0a4f28419497f9722a3daafe3b4186f6b6457e060405160405180910390a35050565b5f5ffd5b5f73ffffffffffffffffffffffffffffffffffffffff82169050919050565b5f610224826101fb565b9050919050565b5f6102358261021a565b9050919050565b6102458161022b565b811461024f575f5ffd5b50565b5f815190506102608161023c565b92915050565b5f6020828403121561027b5761027a6101f7565b5b5f61028884828501610252565b91505092915050565b61029a8161021a565b82525050565b5f6020820190506102b35f830184610291565b92915050565b6080516111af6103025f395f81816102d70152818161036a015281816104fc01528181610528015281816105ad01528181610637015281816106d401526108b901526111af5ff3fe6080604052600436106100dc575f3560e01c8063b0d691fe1161007e578063c399ec8811610058578063c399ec8814610247578063d0e30db014610271578063e30c39781461027b578063f2fde38b146102a5576100dc565b8063b0d691fe146101df578063bb9fe6bf14610209578063c23a5cea1461021f576100dc565b8063715018a6116100ba578063715018a61461016157806379ba5097146101775780637c627b211461018d5780638da5cb5b146101b5576100dc565b80630396cb60146100e0578063205c2878146100fc57806352b7512c14610124575b5f5ffd5b6100fa60048036038101906100f59190610b30565b6102cd565b005b348015610107575f5ffd5b50610122600480360381019061011d9190610be8565b610360565b005b34801561012f575f5ffd5b5061014a60048036038101906101459190610c7c565b6103f4565b604051610158929190610d67565b60405180910390f35b34801561016c575f5ffd5b50610175610416565b005b348015610182575f5ffd5b5061018b610429565b005b348015610198575f5ffd5b506101b360048036038101906101ae9190610e19565b6104b7565b005b3480156101c0575f5ffd5b506101c96104d3565b6040516101d69190610ebd565b60405180910390f35b3480156101ea575f5ffd5b506101f36104fa565b6040516102009190610f31565b60405180910390f35b348015610214575f5ffd5b5061021d61051e565b005b34801561022a575f5ffd5b5061024560048036038101906102409190610f4a565b6105a3565b005b348015610252575f5ffd5b5061025b610634565b6040516102689190610f75565b60405180910390f35b6102796106d2565b005b348015610286575f5ffd5b5061028f61075c565b60405161029c9190610ebd565b60405180910390f35b3480156102b0575f5ffd5b506102cb60048036038101906102c69190610fb8565b610784565b005b6102d5610830565b7f000000000000000000000000000000000000000000000000000000000000000073ffffffffffffffffffffffffffffffffffffffff16630396cb6034836040518363ffffffff1660e01b815260040161032f9190610ff2565b5f604051808303818588803b158015610346575f5ffd5b505af1158015610358573d5f5f3e3d5ffd5b505050505050565b610368610830565b7f000000000000000000000000000000000000000000000000000000000000000073ffffffffffffffffffffffffffffffffffffffff1663205c287883836040518363ffffffff1660e01b81526004016103c392919061101a565b5f604051808303815f87803b1580156103da575f5ffd5b505af11580156103ec573d5f5f3e3d5ffd5b505050505050565b60605f6103ff6108b7565b61040a858585610947565b91509150935093915050565b61041e610830565b6104275f6109bc565b565b5f6104326109ec565b90508073ffffffffffffffffffffffffffffffffffffffff1661045361075c565b73ffffffffffffffffffffffffffffffffffffffff16146104ab57806040517f118cdaa70000000000000000000000000000000000000000000000000000000081526004016104a29190610ebd565b60405180910390fd5b6104b4816109bc565b50565b6104bf6108b7565b6104cc85858585856109f3565b5050505050565b5f5f5f9054906101000a900473ffffffffffffffffffffffffffffffffffffffff16905090565b7f000000000000000000000000000000000000000000000000000000000000000081565b610526610830565b7f000000000000000000000000000000000000000000000000000000000000000073ffffffffffffffffffffffffffffffffffffffff1663bb9fe6bf6040518163ffffffff1660e01b81526004015f604051808303815f87803b15801561058b575f5ffd5b505af115801561059d573d5f5f3e3d5ffd5b50505050565b6105ab610830565b7f000000000000000000000000000000000000000000000000000000000000000073ffffffffffffffffffffffffffffffffffffffff1663c23a5cea826040518263ffffffff1660e01b81526004016106049190611041565b5f604051808303815f87803b15801561061b575f5ffd5b505af115801561062d573d5f5f3e3d5ffd5b5050505050565b5f7f000000000000000000000000000000000000000000000000000000000000000073ffffffffffffffffffffffffffffffffffffffff166370a08231306040518263ffffffff1660e01b815260040161068e9190610ebd565b602060405180830381865afa1580156106a9573d5f5f3e3d5ffd5b505050506040513d601f19601f820116820180604052508101906106cd919061106e565b905090565b7f000000000000000000000000000000000000000000000000000000000000000073ffffffffffffffffffffffffffffffffffffffff1663b760faf934306040518363ffffffff1660e01b815260040161072c9190610ebd565b5f604051808303818588803b158015610743575f5ffd5b505af1158015610755573d5f5f3e3d5ffd5b5050505050565b5f60015f9054906101000a900473ffffffffffffffffffffffffffffffffffffffff16905090565b61078c610830565b8060015f6101000a81548173ffffffffffffffffffffffffffffffffffffffff021916908373ffffffffffffffffffffffffffffffffffffffff1602179055508073ffffffffffffffffffffffffffffffffffffffff166107eb6104d3565b73ffffffffffffffffffffffffffffffffffffffff167f38d16b8cac22d99fc7c124b9cd0de2d3fa1faef420bfe791d8c362d765e2270060405160405180910390a350565b6108386109ec565b73ffffffffffffffffffffffffffffffffffffffff166108566104d3565b73ffffffffffffffffffffffffffffffffffffffff16146108b5576108796109ec565b6040517f118cdaa70000000000000000000000000000000000000000000000000000000081526004016108ac9190610ebd565b60405180910390fd5b565b7f000000000000000000000000000000000000000000000000000000000000000073ffffffffffffffffffffffffffffffffffffffff163373ffffffffffffffffffffffffffffffffffffffff1614610945576040517f08c379a000000000000000000000000000000000000000000000000000000000815260040161093c906110f3565b60405180910390fd5b565b60605f83855f01602081019061095d9190610fb8565b73ffffffffffffffffffffffffffffffffffffffff167fe08b8a977a30c1ee666988bf7d3b81d30e082e164e4436830263a5748e63810660405160405180910390a35f60405180602001604052805f8152509091509150935093915050565b60015f6101000a81549073ffffffffffffffffffffffffffffffffffffffff02191690556109e981610a2e565b50565b5f33905090565b6040517f08c379a0000000000000000000000000000000000000000000000000000000008152600401610a259061115b565b60405180910390fd5b5f5f5f9054906101000a900473ffffffffffffffffffffffffffffffffffffffff169050815f5f6101000a81548173ffffffffffffffffffffffffffffffffffffffff021916908373ffffffffffffffffffffffffffffffffffffffff1602179055508173ffffffffffffffffffffffffffffffffffffffff168173ffffffffffffffffffffffffffffffffffffffff167f8be0079c531659141344cd1fd0a4f28419497f9722a3daafe3b4186f6b6457e060405160405180910390a35050565b5f5ffd5b5f5ffd5b5f63ffffffff82169050919050565b610b0f81610af7565b8114610b19575f5ffd5b50565b5f81359050610b2a81610b06565b92915050565b5f60208284031215610b4557610b44610aef565b5b5f610b5284828501610b1c565b91505092915050565b5f73ffffffffffffffffffffffffffffffffffffffff82169050919050565b5f610b8482610b5b565b9050919050565b610b9481610b7a565b8114610b9e575f5ffd5b50565b5f81359050610baf81610b8b565b92915050565b5f819050919050565b610bc781610bb5565b8114610bd1575f5ffd5b50565b5f81359050610be281610bbe565b92915050565b5f5f60408385031215610bfe57610bfd610aef565b5b5f610c0b85828601610ba1565b9250506020610c1c85828601610bd4565b9150509250929050565b5f5ffd5b5f6101208284031215610c4057610c3f610c26565b5b81905092915050565b5f819050919050565b610c5b81610c49565b8114610c65575f5ffd5b50565b5f81359050610c7681610c52565b92915050565b5f5f5f60608486031215610c9357610c92610aef565b5b5f84013567ffffffffffffffff811115610cb057610caf610af3565b5b610cbc86828701610c2a565b9350506020610ccd86828701610c68565b9250506040610cde86828701610bd4565b9150509250925092565b5f81519050919050565b5f82825260208201905092915050565b8281835e5f83830152505050565b5f601f19601f8301169050919050565b5f610d2a82610ce8565b610d348185610cf2565b9350610d44818560208601610d02565b610d4d81610d10565b840191505092915050565b610d6181610bb5565b82525050565b5f6040820190508181035f830152610d7f8185610d20565b9050610d8e6020830184610d58565b9392505050565b60038110610da1575f5ffd5b50565b5f81359050610db281610d95565b92915050565b5f5ffd5b5f5ffd5b5f5ffd5b5f5f83601f840112610dd957610dd8610db8565b5b8235905067ffffffffffffffff811115610df657610df5610dbc565b5b602083019150836001820283011115610e1257610e11610dc0565b5b9250929050565b5f5f5f5f5f60808688031215610e3257610e31610aef565b5b5f610e3f88828901610da4565b955050602086013567ffffffffffffffff811115610e6057610e5f610af3565b5b610e6c88828901610dc4565b94509450506040610e7f88828901610bd4565b9250506060610e9088828901610bd4565b9150509295509295909350565b5f610ea782610b5b565b9050919050565b610eb781610e9d565b82525050565b5f602082019050610ed05f830184610eae565b92915050565b5f819050919050565b5f610ef9610ef4610eef84610b5b565b610ed6565b610b5b565b9050919050565b5f610f0a82610edf565b9050919050565b5f610f1b82610f00565b9050919050565b610f2b81610f11565b82525050565b5f602082019050610f445f830184610f22565b92915050565b5f60208284031215610f5f57610f5e610aef565b5b5f610f6c84828501610ba1565b91505092915050565b5f602082019050610f885f830184610d58565b92915050565b610f9781610e9d565b8114610fa1575f5ffd5b50565b5f81359050610fb281610f8e565b92915050565b5f60208284031215610fcd57610fcc610aef565b5b5f610fda84828501610fa4565b91505092915050565b610fec81610af7565b82525050565b5f6020820190506110055f830184610fe3565b92915050565b61101481610b7a565b82525050565b5f60408201905061102d5f83018561100b565b61103a6020830184610d58565b9392505050565b5f6020820190506110545f83018461100b565b92915050565b5f8151905061106881610bbe565b92915050565b5f6020828403121561108357611082610aef565b5b5f6110908482850161105a565b91505092915050565b5f82825260208201905092915050565b7f53656e646572206e6f7420456e747279506f696e7400000000000000000000005f82015250565b5f6110dd601583611099565b91506110e8826110a9565b602082019050919050565b5f6020820190508181035f83015261110a816110d1565b9050919050565b7f6d757374206f76657272696465000000000000000000000000000000000000005f82015250565b5f611145600d83611099565b915061115082611111565b602082019050919050565b5f6020820190508181035f83015261117281611139565b905091905056fea26469706673582212208db685f5d1603522a07ad864e41b8fd16b85171f176755719e54091355c1d2f864736f6c634300081c0033",
  "linkReferences": {},
  "deployedLinkReferences": {}
}