{
  "_format": "hh-sol-artifact-1",
  "contractName": "SmartAccount",
  "sourceName": "contracts/SmartAccount.sol",
  "abi": [
    {
      "inputs": [
        {
          "internalType": "address",
          "name": "_owner",
          "type": "address"
        },
        {
          "internalType": "contract IEntryPoint",
          "name": "entryPointAddress",
          "type": "address"
        }
      ],
      "stateMutability": "nonpayable",
      "type": "constructor"
    },
    {
      "inputs": [],
      "name": "ECDSAInvalidSignature",
      "type": "error"
    },
    {
      "inputs": [
        {
          "internalType": "uint256",
          "name": "length",
          "type": "uint256"
        }
      ],
      "name": "ECDSAInvalidSignatureLength",
      "type": "error"
    },
    {
      "inputs": [
        {
          "internalType": "bytes32",
          "name": "s",
          "type": "bytes32"
        }
      ],
      "name": "ECDSAInvalidSignatureS",
      "type": "error"
    },
    {
      "inputs": [
        {
          "internalType": "uint256",
          "name": "index",
          "type": "uint256"
        },
        {
          "internalType": "bytes",
          "name": "error",
          "type": "bytes"
        }
      ],
      "name": "ExecuteError",
      "type": "error"
    },
    {
      "anonymous": false,
      "inputs": [
        {
          "indexed": true,
          "internalType": "address",
          "name": "entryPoint",
          "type": "address"
        },
        {
          "indexed": true,
          "internalType": "address",
          "name": "owner",
          "type": "address"
        }
      ],
      "name": "SmartAccountInitialized",
      "type": "event"
    },
    {
      "anonymous": false,
      "inputs": [
        {
          "indexed": true,
          "internalType": "address",
          "name": "dest",
          "type": "address"
        },
        {
          "indexed": false,
          "internalType": "uint256",
          "name": "value",
          "type": "uint256"
        },
        {
          "indexed": false,
          "internalType": "bytes",
          "name": "data",
          "type": "bytes"
        }
      ],
      "name": "TransactionExecuted",
      "type": "event"
    },
    {
      "inputs": [],
      "name": "entryPoint",
      "outputs": [
        {
          "internalType": "contract IEntryPoint",
          "name": "",
          "type": "address"
        }
      ],
      "stateMutability": "view",
      "type": "function"
    },
    {
      "inputs": [
        {
          "internalType": "address",
          "name": "dest",
          "type": "address"
        },
        {
          "internalType": "uint256",
          "name": "value",
          "type": "uint256"
        },
        {
          "internalType": "bytes",
          "name": "func",
          "type": "bytes"
        }
      ],
      "name": "execute",
      "outputs": [],
      "stateMutability": "nonpayable",
      "type": "function"
    },
    {
      "inputs": [
        {
          "components": [
            {
              "internalType": "address",
              "name": "target",
              "type": "address"
            },
            {
              "internalType": "uint256",
              "name": "value",
              "type": "uint256"
            },
            {
              "internalType": "bytes",
              "name": "data",
              "type": "bytes"
            }
          ],
          "internalType": "struct BaseAccount.Call[]",
          "name": "calls",
          "type": "tuple[]"
        }
      ],
      "name": "executeBatch",
      "outputs": [],
      "stateMutability": "nonpayable",
      "type": "function"
    },
    {
      "inputs": [],
      "name": "getNonce",
      "outputs": [
        {
          "internalType": "uint256",
          "name": "",
          "type": "uint256"
        }
      ],
      "stateMutability": "view",
      "type": "function"
    },
    {
      "inputs": [],
      "name": "owner",
      "outputs": [
        {
          "internalType": "address",
          "name": "",
          "type": "address"
        }
      ],
      "stateMutability": "view",
      "type": "function"
    },
    {
      "inputs": [
        {
          "components": [
            {
              "internalType": "address",
              "name": "sender",
              "type": "address"
            },
            {
              "internalType": "uint256",
              "name": "nonce",
              "type": "uint256"
            },
            {
              "internalType": "bytes",
              "name": "initCode",
              "type": "bytes"
            },
            {
              "internalType": "bytes",
              "name": "callData",
              "type": "bytes"
            },
            {
              "internalType": "bytes32",
              "name": "accountGasLimits",
              "type": "bytes32"
            },
            {
              "internalType": "uint256",
              "name": "preVerificationGas",
              "type": "uint256"
            },
            {
              "internalType": "bytes32",
              "name": "gasFees",
              "type": "bytes32"
            },
            {
              "internalType": "bytes",
              "name": "paymasterAndData",
              "type": "bytes"
            },
            {
              "internalType": "bytes",
              "name": "signature",
              "type": "bytes"
            }
          ],
          "internalType": "struct PackedUserOperation",
          "name": "userOp",
          "type": "tuple"
        },
        {
          "internalType": "bytes32",
          "name": "userOpHash",
          "type": "bytes32"
        },
        {
          "internalType": "uint256",
          "name": "missingAccountFunds",
          "type": "uint256"
        }
      ],
      "name": "validateUserOp",
      "outputs": [
        {
          "internalType": "uint256",
          "name": "validationData",
          "type": "uint256"
        }
      ],
      "stateMutability": "nonpayable",
      "type": "function"
    },
    {
      "stateMutability": "payable",
      "type": "receive"
    }
  ],
  "bytecode": "0x60a060405234801561000f575f5ffd5b506040516115053803806115058339818101604052810190610031919061019e565b815f5f6101000a81548173ffffffffffffffffffffffffffffffffffffffff021916908373ffffffffffffffffffffffffffffffffffffffff1602179055508073ffffffffffffffffffffffffffffffffffffffff1660808173ffffffffffffffffffffffffffffffffffffffff16815250508173ffffffffffffffffffffffffffffffffffffffff168173ffffffffffffffffffffffffffffffffffffffff167fb7053def2fe3d2a5ecb12939fbfcc30f59b5f3efabd9addbe6537fbea7c2739860405160405180910390a350506101dc565b5f5ffd5b5f73ffffffffffffffffffffffffffffffffffffffff82169050919050565b5f61013282610109565b9050919050565b61014281610128565b811461014c575f5ffd5b50565b5f8151905061015d81610139565b92915050565b5f61016d82610128565b9050919050565b61017d81610163565b8114610187575f5ffd5b50565b5f8151905061019881610174565b92915050565b5f5f604083850312156101b4576101b3610105565b5b5f6101c18582860161014f565b92505060206101d28582860161018a565b9150509250929050565b6080516113116101f45f395f6102f601526113115ff3fe608060405260043610610058575f3560e01c806319822f7c1461006357806334fcd5be1461009f5780638da5cb5b146100c7578063b0d691fe146100f1578063b61d27f61461011b578063d087d288146101435761005f565b3661005f57005b5f5ffd5b34801561006e575f5ffd5b5061008960048036038101906100849190610b18565b61016d565b6040516100969190610b93565b60405180910390f35b3480156100aa575f5ffd5b506100c560048036038101906100c09190610c0d565b61019f565b005b3480156100d2575f5ffd5b506100db6102cf565b6040516100e89190610c97565b60405180910390f35b3480156100fc575f5ffd5b506101056102f3565b6040516101129190610d0b565b60405180910390f35b348015610126575f5ffd5b50610141600480360381019061013c9190610da3565b61031a565b005b34801561014e575f5ffd5b506101576103f7565b6040516101649190610b93565b60405180910390f35b5f61017661047e565b61018084846104f5565b905061018f84602001356105d4565b610198826105d7565b9392505050565b6101a761064b565b5f8282905090505f5f90505b818110156102c957368484838181106101cf576101ce610e14565b5b90506020028101906101e19190610e4d565b90505f610256825f0160208101906101f99190610e74565b836020013584806040019061020e9190610e9f565b8080601f0160208091040260200160405190810160405280939291908181526020018383808284375f81840152601f19601f820116905080830192505050505050505a610655565b9050806102ba57600184036102725761026d61066c565b6102b9565b8261027c5f61067f565b6040517f5a1546750000000000000000000000000000000000000000000000000000000081526004016102b0929190610f71565b60405180910390fd5b5b505080806001019150506101b3565b50505050565b5f5f9054906101000a900473ffffffffffffffffffffffffffffffffffffffff1681565b5f7f0000000000000000000000000000000000000000000000000000000000000000905090565b6103226106b7565b5f5f8573ffffffffffffffffffffffffffffffffffffffff1685858560405161034c929190610fdb565b5f6040518083038185875af1925050503d805f8114610386576040519150601f19603f3d011682016040523d82523d5f602084013e61038b565b606091505b50915091508161039d57805160208201fd5b8573ffffffffffffffffffffffffffffffffffffffff167f47d99ad340f52da66535aff7e10da1ceb85a32bcbd9fa1c42314d194545e14d28686866040516103e79392919061101f565b60405180910390a2505050505050565b5f6104006102f3565b73ffffffffffffffffffffffffffffffffffffffff166335567e1a305f6040518363ffffffff1660e01b815260040161043a9291906110ab565b602060405180830381865afa158015610455573d5f5f3e3d5ffd5b505050506040513d601f19601f8201168201806040525081019061047991906110e6565b905090565b6104866102f3565b73ffffffffffffffffffffffffffffffffffffffff163373ffffffffffffffffffffffffffffffffffffffff16146104f3576040517f08c379a00000000000000000000000000000000000000000000000000000000081526004016104ea9061116b565b60405180910390fd5b565b5f5f61050083610784565b90505f610568858061010001906105179190610e9f565b8080601f0160208091040260200160405190810160405280939291908181526020018383808284375f81840152601f19601f82011690508083019250505050505050836107b790919063ffffffff16565b90505f5f9054906101000a900473ffffffffffffffffffffffffffffffffffffffff1673ffffffffffffffffffffffffffffffffffffffff168173ffffffffffffffffffffffffffffffffffffffff16146105c8576001925050506105ce565b5f925050505b92915050565b50565b5f8114610648575f3373ffffffffffffffffffffffffffffffffffffffff1682604051610603906111ac565b5f6040518083038185875af1925050503d805f811461063d576040519150601f19603f3d011682016040523d82523d5f602084013e610642565b606091505b50509050505b50565b61065361047e565b565b5f5f5f845160208601878987f19050949350505050565b61067d6106785f61067f565b6107e1565b565b60603d5f8311156106975782811115610696578290505b5b604051602082018101604052818152815f602083013e8092505050919050565b6106bf6102f3565b73ffffffffffffffffffffffffffffffffffffffff163373ffffffffffffffffffffffffffffffffffffffff16148061074357505f5f9054906101000a900473ffffffffffffffffffffffffffffffffffffffff1673ffffffffffffffffffffffffffffffffffffffff163373ffffffffffffffffffffffffffffffffffffffff16145b610782576040517f08c379a00000000000000000000000000000000000000000000000000000000081526004016107799061120a565b60405180910390fd5b565b5f7f19457468657265756d205369676e6564204d6573736167653a0a3332000000005f5281601c52603c5f209050919050565b5f5f5f5f6107c586866107e9565b9250925092506107d5828261083e565b82935050505092915050565b805160208201fd5b5f5f5f6041845103610829575f5f5f602087015192506040870151915060608701515f1a905061081b888285856109a0565b955095509550505050610837565b5f600285515f1b9250925092505b9250925092565b5f600381111561085157610850611228565b5b82600381111561086457610863611228565b5b031561099c576001600381111561087e5761087d611228565b5b82600381111561089157610890611228565b5b036108c8576040517ff645eedf00000000000000000000000000000000000000000000000000000000815260040160405180910390fd5b600260038111156108dc576108db611228565b5b8260038111156108ef576108ee611228565b5b0361093357805f1c6040517ffce698f700000000000000000000000000000000000000000000000000000000815260040161092a9190610b93565b60405180910390fd5b60038081111561094657610945611228565b5b82600381111561095957610958611228565b5b0361099b57806040517fd78bce0c0000000000000000000000000000000000000000000000000000000081526004016109929190611264565b60405180910390fd5b5b5050565b5f5f5f7f7fffffffffffffffffffffffffffffff5d576e7357a4501ddfe92f46681b20a0845f1c11156109dc575f600385925092509250610a7d565b5f6001888888886040515f81526020016040526040516109ff9493929190611298565b6020604051602081039080840390855afa158015610a1f573d5f5f3e3d5ffd5b5050506020604051035190505f73ffffffffffffffffffffffffffffffffffffffff168173ffffffffffffffffffffffffffffffffffffffff1603610a70575f60015f5f1b93509350935050610a7d565b805f5f5f1b935093509350505b9450945094915050565b5f5ffd5b5f5ffd5b5f5ffd5b5f6101208284031215610aa957610aa8610a8f565b5b81905092915050565b5f819050919050565b610ac481610ab2565b8114610ace575f5ffd5b50565b5f81359050610adf81610abb565b92915050565b5f819050919050565b610af781610ae5565b8114610b01575f5ffd5b50565b5f81359050610b1281610aee565b92915050565b5f5f5f60608486031215610b2f57610b2e610a87565b5b5f84013567ffffffffffffffff811115610b4c57610b4b610a8b565b5b610b5886828701610a93565b9350506020610b6986828701610ad1565b9250506040610b7a86828701610b04565b9150509250925092565b610b8d81610ae5565b82525050565b5f602082019050610ba65f830184610b84565b92915050565b5f5ffd5b5f5ffd5b5f5ffd5b5f5f83601f840112610bcd57610bcc610bac565b5b8235905067ffffffffffffffff811115610bea57610be9610bb0565b5b602083019150836020820283011115610c0657610c05610bb4565b5b9250929050565b5f5f60208385031215610c2357610c22610a87565b5b5f83013567ffffffffffffffff811115610c4057610c3f610a8b565b5b610c4c85828601610bb8565b92509250509250929050565b5f73ffffffffffffffffffffffffffffffffffffffff82169050919050565b5f610c8182610c58565b9050919050565b610c9181610c77565b82525050565b5f602082019050610caa5f830184610c88565b92915050565b5f819050919050565b5f610cd3610cce610cc984610c58565b610cb0565b610c58565b9050919050565b5f610ce482610cb9565b9050919050565b5f610cf582610cda565b9050919050565b610d0581610ceb565b82525050565b5f602082019050610d1e5f830184610cfc565b92915050565b610d2d81610c77565b8114610d37575f5ffd5b50565b5f81359050610d4881610d24565b92915050565b5f5f83601f840112610d6357610d62610bac565b5b8235905067ffffffffffffffff811115610d8057610d7f610bb0565b5b602083019150836001820283011115610d9c57610d9b610bb4565b5b9250929050565b5f5f5f5f60608587031215610dbb57610dba610a87565b5b5f610dc887828801610d3a565b9450506020610dd987828801610b04565b935050604085013567ffffffffffffffff811115610dfa57610df9610a8b565b5b610e0687828801610d4e565b925092505092959194509250565b7f4e487b71000000000000000000000000000000000000000000000000000000005f52603260045260245ffd5b5f5ffd5b5f5ffd5b5f5ffd5b5f82356001606003833603038112610e6857610e67610e41565b5b80830191505092915050565b5f60208284031215610e8957610e88610a87565b5b5f610e9684828501610d3a565b91505092915050565b5f5f83356001602003843603038112610ebb57610eba610e41565b5b80840192508235915067ffffffffffffffff821115610edd57610edc610e45565b5b602083019250600182023603831315610ef957610ef8610e49565b5b509250929050565b5f81519050919050565b5f82825260208201905092915050565b8281835e5f83830152505050565b5f601f19601f8301169050919050565b5f610f4382610f01565b610f4d8185610f0b565b9350610f5d818560208601610f1b565b610f6681610f29565b840191505092915050565b5f604082019050610f845f830185610b84565b8181036020830152610f968184610f39565b90509392505050565b5f81905092915050565b828183375f83830152505050565b5f610fc28385610f9f565b9350610fcf838584610fa9565b82840190509392505050565b5f610fe7828486610fb7565b91508190509392505050565b5f610ffe8385610f0b565b935061100b838584610fa9565b61101483610f29565b840190509392505050565b5f6040820190506110325f830186610b84565b8181036020830152611045818486610ff3565b9050949350505050565b5f819050919050565b5f77ffffffffffffffffffffffffffffffffffffffffffffffff82169050919050565b5f61109561109061108b8461104f565b610cb0565b611058565b9050919050565b6110a58161107b565b82525050565b5f6040820190506110be5f830185610c88565b6110cb602083018461109c565b9392505050565b5f815190506110e081610aee565b92915050565b5f602082840312156110fb576110fa610a87565b5b5f611108848285016110d2565b91505092915050565b5f82825260208201905092915050565b7f6163636f756e743a206e6f742066726f6d20456e747279506f696e74000000005f82015250565b5f611155601c83611111565b915061116082611121565b602082019050919050565b5f6020820190508181035f83015261118281611149565b9050919050565b50565b5f6111975f83610f9f565b91506111a282611189565b5f82019050919050565b5f6111b68261118c565b9150819050919050565b7f4e6f7420617574686f72697a65640000000000000000000000000000000000005f82015250565b5f6111f4600e83611111565b91506111ff826111c0565b602082019050919050565b5f6020820190508181035f830152611221816111e8565b9050919050565b7f4e487b71000000000000000000000000000000000000000000000000000000005f52602160045260245ffd5b61125e81610ab2565b82525050565b5f6020820190506112775f830184611255565b92915050565b5f60ff82169050919050565b6112928161127d565b82525050565b5f6080820190506112ab5f830187611255565b6112b86020830186611289565b6112c56040830185611255565b6112d26060830184611255565b9594505050505056fea26469706673582212202d5fa08f1a2236f579fa87e001096e10c5db810fe151933e9b2bcbd710bbd57064736f6c634300081c0033",
  "linkReferences": {},
  "deployedLinkReferences": {}
}